{
  "_format": "hh-sol-artifact-1",
  "contractName": "MultisigFactory",
  "sourceName": "contracts/MultisigFactory.sol",
  "abi": [
    {
      "anonymous": false,
      "inputs": [
        {
          "indexed": true,
          "internalType": "address",
          "name": "wallet",
          "type": "address"
        },
        {
          "indexed": true,
          "internalType": "address",
          "name": "creator",
          "type": "address"
        },
        {
          "indexed": false,
          "internalType": "address[]",
          "name": "owners",
          "type": "address[]"
        },
        {
          "indexed": false,
          "internalType": "uint256",
          "name": "threshold",
          "type": "uint256"
        },
        {
          "indexed": false,
          "internalType": "uint256",
          "name": "timestamp",
          "type": "uint256"
        }
      ],
      "name": "MultisigCreated",
      "type": "event"
    },
    {
      "inputs": [
        {
          "internalType": "uint256",
          "name": "",
          "type": "uint256"
        }
      ],
      "name": "allWallets",
      "outputs": [
        {
          "internalType": "address",
          "name": "",
          "type": "address"
        }
      ],
      "stateMutability": "view",
      "type": "function"
    },
    {
      "inputs": [
        {
          "internalType": "address[]",
          "name": "owners",
          "type": "address[]"
        },
        {
          "internalType": "uint256",
          "name": "threshold",
          "type": "uint256"
        }
      ],
      "name": "createMultisig",
      "outputs": [
        {
          "internalType": "address",
          "name": "wallet",
          "type": "address"
        }
      ],
      "stateMutability": "nonpayable",
      "type": "function"
    },
    {
      "inputs": [],
      "name": "getAllWallets",
      "outputs": [
        {
          "internalType": "address[]",
          "name": "",
          "type": "address[]"
        }
      ],
      "stateMutability": "view",
      "type": "function"
    },
    {
      "inputs": [],
      "name": "getWalletCount",
      "outputs": [
        {
          "internalType": "uint256",
          "name": "",
          "type": "uint256"
        }
      ],
      "stateMutability": "view",
      "type": "function"
    },
    {
      "inputs": [
        {
          "internalType": "address",
          "name": "wallet",
          "type": "address"
        }
      ],
      "name": "getWalletInfo",
      "outputs": [
        {
          "internalType": "address",
          "name": "creator",
          "type": "address"
        },
        {
          "internalType": "uint256",
          "name": "createdAt",
          "type": "uint256"
        },
        {
          "internalType": "address[]",
          "name": "owners",
          "type": "address[]"
        },
        {
          "internalType": "uint256",
          "name": "threshold",
          "type": "uint256"
        }
      ],
      "stateMutability": "view",
      "type": "function"
    },
    {
      "inputs": [
        {
          "internalType": "address",
          "name": "creator",
          "type": "address"
        }
      ],
      "name": "getWalletsByCreator",
      "outputs": [
        {
          "internalType": "address[]",
          "name": "",
          "type": "address[]"
        }
      ],
      "stateMutability": "view",
      "type": "function"
    },
    {
      "inputs": [
        {
          "internalType": "address",
          "name": "owner",
          "type": "address"
        }
      ],
      "name": "getWalletsByOwner",
      "outputs": [
        {
          "internalType": "address[]",
          "name": "wallets",
          "type": "address[]"
        }
      ],
      "stateMutability": "view",
      "type": "function"
    },
    {
      "inputs": [
        {
          "internalType": "address",
          "name": "",
          "type": "address"
        }
      ],
      "name": "isWallet",
      "outputs": [
        {
          "internalType": "bool",
          "name": "",
          "type": "bool"
        }
      ],
      "stateMutability": "view",
      "type": "function"
    },
    {
      "inputs": [
        {
          "internalType": "address",
          "name": "",
          "type": "address"
        }
      ],
      "name": "walletCreatedAt",
      "outputs": [
        {
          "internalType": "uint256",
          "name": "",
          "type": "uint256"
        }
      ],
      "stateMutability": "view",
      "type": "function"
    },
    {
      "inputs": [
        {
          "internalType": "address",
          "name": "",
          "type": "address"
        }
      ],
      "name": "walletCreator",
      "outputs": [
        {
          "internalType": "address",
          "name": "",
          "type": "address"
        }
      ],
      "stateMutability": "view",
      "type": "function"
    },
    {
      "inputs": [
        {
          "internalType": "address",
          "name": "",
          "type": "address"
        },
        {
          "internalType": "uint256",
          "name": "",
          "type": "uint256"
        }
      ],
      "name": "walletsByCreator",
      "outputs": [
        {
          "internalType": "address",
          "name": "",
          "type": "address"
        }
      ],
      "stateMutability": "view",
      "type": "function"
    }
  ],
  "bytecode": "0x60808060405234601557611ab6908161001b8239f35b600080fdfe608080604052600436101561001357600080fd5b60003560e01c90816316c9562c146108af575080631bfa86011461081c5780634a1d0445146107da578063745bd5a2146107bc5780637d5c1914146105ae57806383697151146105645780638cf8350f14610522578063a8825126146104e8578063aabe0122146102d5578063ba799066146100dc5763ce5570ec1461009857600080fd5b346100d75760203660031901126100d7576001600160a01b036100b961092a565b166000526004602052602060ff604060002054166040519015158152f35b600080fd5b346100d75760203660031901126100d7576100f561092a565b600080546001600160a01b0390921691815b81811061024d5750610118826109d1565b9161012660405193846109af565b808352610135601f19916109d1565b0136602084013760009260005b828110610163576040516020808252819061015f90820187610940565b0390f35b602460206101708361097d565b90546040516317aa5fb760e11b8152600481018790529384929091839160031b1c6001600160a01b03165afa90811561024157600091610213575b506101b9575b600101610142565b936101c38561097d565b9054855160039290921b1c6001600160a01b0316908210156101fd57816101f591602060019460051b88010152610a01565b9490506101b1565b634e487b7160e01b600052603260045260246000fd5b610234915060203d811161023a575b61022c81836109af565b8101906109e9565b866101ab565b503d610222565b6040513d6000823e3d90fd5b6024602061025a8361097d565b90546040516317aa5fb760e11b8152600481018990529384929091839160031b1c6001600160a01b03165afa908115610241576000916102b7575b506102a3575b600101610107565b916102af600191610a01565b92905061029b565b6102cf915060203d811161023a5761022c81836109af565b85610295565b346100d75760403660031901126100d75760043567ffffffffffffffff81116100d757366023820112156100d7578060040135610311816109d1565b9161031f60405193846109af565b8183526024602084019260051b820101903682116100d757602401915b8183106104c8578360243560405161105a80820182811067ffffffffffffffff8211176104b2578291610a2783396040815283602061037e6040840188610940565b92015203906000f080156102415760018060a01b031690600054600160401b8110156104b2578060016103b692016000556000610997565b81549060031b9084821b9160018060a01b03901b191617905533600052600160205260406000208054600160401b8110156104b25760209461042082869460017f83bd5e9cf51f7124b4e0f1f62dc0bad85f074b92f7b7e6dda524d2850dc7ca5495018155610997565b81549060031b9085821b9160018060a01b03901b191617905582600052600286526040600020336bffffffffffffffffffffffff60a01b82541617905582600052600386524260406000205582600052600486526040600020600160ff1982541617905561049960405191606083526060830190610940565b93868201524260408201528033940390a3604051908152f35b634e487b7160e01b600052604160045260246000fd5b82356001600160a01b03811681036100d75781526020928301920161033c565b346100d75760203660031901126100d7576001600160a01b0361050961092a565b1660005260036020526020604060002054604051908152f35b346100d75760203660031901126100d7576004356000548110156100d75761054b60209161097d565b905460405160039290921b1c6001600160a01b03168152f35b346100d75760403660031901126100d75761057d61092a565b6001600160a01b03166000908152600160205260409020805460243591908210156100d75760209161054b91610997565b346100d75760203660031901126100d7576001600160a01b036105cf61092a565b1680600052600460205260ff604060002054161561076b5780600052600260205260018060a01b03604060002054168160005260036020526040600020549160405163a0e67e2b60e01b8152600081600481855afa908115610241576000916106be575b50602060049260405193848092630859bc9d60e31b82525afa91821561024157600092610688575b5061067e9060405194859485526020850152608060408501526080840190610940565b9060608301520390f35b9091506020813d6020116106b6575b816106a4602093836109af565b810103126100d757519061067e61065b565b3d9150610697565b903d8082843e6106ce81846109af565b8201916020818403126107675780519067ffffffffffffffff821161076357019180601f8401121561076757825191610706836109d1565b9361071460405195866109af565b83855260208086019460051b82010192831161076757602001925b828410610743575060209250610633915050565b83516001600160a01b03811681036107635781526020938401930161072f565b8280fd5b5080fd5b60405162461bcd60e51b8152602060048201526024808201527f4e6f7420612077616c6c65742063726561746564206279207468697320666163604482015263746f727960e01b6064820152608490fd5b346100d75760003660031901126100d7576020600054604051908152f35b346100d75760203660031901126100d7576001600160a01b036107fb61092a565b166000526002602052602060018060a01b0360406000205416604051908152f35b346100d75760003660031901126100d757604051806020600054918281520190600080527f290decd9548b62a8d60345a988386fc84ba6bc95484008f6362f93160ef3e5639060005b8181106108905761015f8561087c818703826109af565b604051918291602083526020830190610940565b82546001600160a01b0316845260209093019260019283019201610865565b346100d75760203660031901126100d7576001600160a01b036108d061092a565b16600052600160205260406000208054808352602083019160005260206000209060005b81811061090b5761015f8561087c818703826109af565b82546001600160a01b03168452602090930192600192830192016108f4565b600435906001600160a01b03821682036100d757565b906020808351928381520192019060005b81811061095e5750505090565b82516001600160a01b0316845260209384019390920191600101610951565b6000548110156101fd576000805260206000200190600090565b80548210156101fd5760005260206000200190600090565b90601f8019910116810190811067ffffffffffffffff8211176104b257604052565b67ffffffffffffffff81116104b25760051b60200190565b908160209103126100d7575180151581036100d75790565b6000198114610a105760010190565b634e487b7160e01b600052601160045260246000fdfe60806040523461020c5761105a8038038061001981610227565b92833981019060408183031261020c5780516001600160401b03811161020c57810182601f8201121561020c578051926001600160401b038411610211578360051b9160208061006a818601610227565b80978152019382010191821161020c57602001915b8183106101ec5784602085015160016005558151156101db57801580156101d1575b6101c057906000915b81518310156101ae57600583901b820160200151600093906001600160a01b0316801561019f57808552600160205260ff60408620541661019057808552600160205260408520600160ff1982541617905584546801000000000000000081101561017c576001810180875581101561016857858052602086200180546001600160a01b03191682179055929391926001927f994a936646fe87ffe4f1e469d3d6aa417d6b855598397f323de5b449f765f0c39080a20191906100aa565b634e487b7160e01b86526032600452602486fd5b634e487b7160e01b86526041600452602486fd5b63d67c6fdb60e01b8552600485fd5b6349e27cff60e01b8552600485fd5b600255604051610e0d908161024d8239f35b63aabd5a0960e01b60005260046000fd5b50815181116100a1565b6349e27cff60e01b60005260046000fd5b82516001600160a01b038116810361020c5781526020928301920161007f565b600080fd5b634e487b7160e01b600052604160045260246000fd5b6040519190601f01601f191682016001600160401b038111838210176102115760405256fe6080604052600436101561004e575b361561001957600080fd5b476040519034825260208201527f90890809c654f11d6e72a28fa60149770a0d11ec6c92319d6ceb2bb0a4ea1a1560403392a2005b60003560e01c8063025e7c2714610b3e5780632358d5a814610940578063242232d114610a5d5780632e7700f014610a3f5780632f54bf6e14610a0057806333ea3dc8146109ab57806342cde4e81461098d5780638253951a146109405780639ace38c2146108de578063a0e67e2b14610853578063a4e360c81461072b578063b1e130fc14610634578063c6427474146102cf5763ee22610b0361000e57346102ca5760203660031901126102ca5760043533600052600160205260ff60406000205416156102b9576003548110156102a85760ff600361012f83610c32565b500154166102975760016005540361028657600260055561014f81610c32565b506004810154600254116102755760038101600160ff1982541617905560018060a01b0381541690600260018201549101906040519160009080549061019482610c51565b916001811690811561025e5750600114610229575b5050916000939181859403925af13d15610224573d6101c781610dbb565b906101d56040519283610c8b565b8152600060203d92013e5b156102135733907fefc13bdcf58f184ea7cae26b499fb33b539e01d0197cea456f3ada289b8cf19b600080a36001600555005b637ff07d0d60e11b60005260046000fd5b6101e0565b90915060005260206000206000905b82821061024a575050820181836101a9565b600181602092548488015201910190610238565b60ff191686525050801515028301905081836101a9565b638af69cf160e01b60005260046000fd5b6345f5ce8b60e11b60005260046000fd5b63db5e659b60e01b60005260046000fd5b6315147c4560e21b60005260046000fd5b6330cd747160e01b60005260046000fd5b600080fd5b346102ca5760603660031901126102ca576102e8610bb0565b60443560243567ffffffffffffffff82116102ca57366023830112156102ca5781600401359067ffffffffffffffff82116102ca57602483019260248336920101116102ca5733600052600160205260ff60406000205416156102b957600354926040519460a0860186811067ffffffffffffffff82111761061e576040526001600160a01b0316808652602086018381529092909161038785610dbb565b966103956040519889610c8b565b85885260009786836020830137886020888301015260408201908152606082019089825260808301958a8752680100000000000000008a101561060a5760018a016003556103e28a610c32565b9490946105f6575184546001600160a01b0319166001600160a01b0391909116178455516001840155518051600284019167ffffffffffffffff82116105e25761042c8354610c51565b601f811161059d575b50928a9695928c95928b9560209e508e90601f83116001146104f35791807feee6115adc2716ab44748a386186d001b75cc7d059552a44930de6261a757b519b9c9492600496948b926104e8575b50508160011b916000199060031b1c19161790555b600384019051151560ff801983541691161790555191015560405193845260408a8501528160408501526060840137606086830101526060813396601f80199101168101030190a4604051908152f35b015190503880610483565b838952818920929b9493929190601f198d168a5b81811061056a5750926001928e927feee6115adc2716ab44748a386186d001b75cc7d059552a44930de6261a757b519e9f60049998979610610551575b505050811b019055610498565b015160001960f88460031b161c19169055388080610544565b94979a9c509194979a9c959850916020600181928786015181550195019301918f9b999693918f99969d9b989593610507565b838d5260208d20601f840160051c810191602085106105d8575b601f0160051c01905b8181106105cd5750610435565b8d81556001016105c0565b90915081906105b7565b634e487b7160e01b8c52604160045260248cfd5b634e487b7160e01b8c5260048c905260248cfd5b634e487b7160e01b8b52604160045260248bfd5b634e487b7160e01b600052604160045260246000fd5b346102ca5760203660031901126102ca5760043533600052600160205260ff60406000205416156102b9576003548110156102a85760ff600361067683610c32565b5001541661029757600081815260046020908152604080832033845290915290205460ff161561071a576000818152600460208181526040808420338552909152909120805460ff191690556106cb82610c32565b5001805480156107045760001901905533907f4cd471041f6b9ff47536a54a3d3ab62d0fa9dd5e36c0418b294b1673acb31881600080a3005b634e487b7160e01b600052601160045260246000fd5b6334c68f2b60e01b60005260046000fd5b346102ca5760203660031901126102ca57600435600461074a82610c32565b50015461075681610da3565b6107636040519182610c8b565b818152601f1961077283610da3565b0136602083013760009283928454935b8481108061084a575b156108385782600052600460205260ff6040806000206107aa84610b80565b905460039190911b1c6001600160a01b031660009081526020919091522054166107dd575b6107d890610d94565b610782565b946107e786610b80565b9054855160039290921b1c6001600160a01b031690821015610822578161081a9160206107d89460051b88010152610d94565b9590506107cf565b634e487b7160e01b600052603260045260246000fd5b604051806108468682610d51565b0390f35b5081861061078b565b346102ca5760003660031901126102ca57604051806020600054918281520190600080527f290decd9548b62a8d60345a988386fc84ba6bc95484008f6362f93160ef3e5639060005b8181106108bf57610846856108b381870382610c8b565b60405191829182610d51565b82546001600160a01b031684526020909301926001928301920161089c565b346102ca5760203660031901126102ca576004356003548110156102ca5761090590610c32565b5060018060a01b0381541661084660018301549261092560028201610cad565b90600460ff6003830154169101549160405195869586610bc6565b346102ca5760403660031901126102ca57610959610b9a565b600435600052600460205260406000209060018060a01b0316600052602052602060ff604060002054166040519015158152f35b346102ca5760003660031901126102ca576020600254604051908152f35b346102ca5760203660031901126102ca576109c7600435610c32565b5060018060a01b0381541661084660018301549260ff6003820154166109f4600260048401549301610cad565b60405195869586610bc6565b346102ca5760203660031901126102ca576001600160a01b03610a21610bb0565b166000526001602052602060ff604060002054166040519015158152f35b346102ca5760003660031901126102ca576020600354604051908152f35b346102ca5760203660031901126102ca5760043533600052600160205260ff60406000205416156102b9576003548110156102a85760ff6003610a9f83610c32565b5001541661029757600081815260046020908152604080832033845290915290205460ff16610b2d576000818152600460208181526040808420338552909152909120805460ff19166001179055610af682610c32565b5001610b028154610d94565b905533907f924813d717e221b5f46dcd8a56da1679e4612584ab3237d55e5faabf6f6a3079600080a3005b631825708960e31b60005260046000fd5b346102ca5760203660031901126102ca576004356000548110156102ca57610b67602091610b80565b905460405160039290921b1c6001600160a01b03168152f35b600054811015610822576000805260206000200190600090565b602435906001600160a01b03821682036102ca57565b600435906001600160a01b03821682036102ca57565b9291909594939560018060a01b03168352602083015260a060408301528051908160a084015260005b828110610c1c5750509060c08260008260809585010152601f801991011682010194151560608201520152565b80602080928401015160c0828701015201610bef565b6003548110156108225760036000526005602060002091020190600090565b90600182811c92168015610c81575b6020831014610c6b57565b634e487b7160e01b600052602260045260246000fd5b91607f1691610c60565b90601f8019910116810190811067ffffffffffffffff82111761061e57604052565b9060405191826000825492610cc184610c51565b8084529360018116908115610d2f5750600114610ce8575b50610ce692500383610c8b565b565b90506000929192526020600020906000915b818310610d13575050906020610ce69282010138610cd9565b6020919350806001915483858901015201910190918492610cfa565b905060209250610ce694915060ff191682840152151560051b82010138610cd9565b602060408183019282815284518094520192019060005b818110610d755750505090565b82516001600160a01b0316845260209384019390920191600101610d68565b60001981146107045760010190565b67ffffffffffffffff811161061e5760051b60200190565b67ffffffffffffffff811161061e57601f01601f19166020019056fea26469706673582212208aee09f475d9e6b02a6cde973bbd0e5c9c3ee82b3bc7563a5d81ccceb193e72f64736f6c634300081b0033a264697066735822122040cad1e2b64f1b706bef9fe16498fd10dfdf4a6cd089b0a2ce290793712ac33d64736f6c634300081b0033",
  "linkReferences": {},
  "deployedLinkReferences": {}
}